:1000000097C10000C6C10000C4C10000C2C1000009
:10001000C0C10000BEC10000BCC10000BAC10000E8
:10002000B8C100000C9464230C9464230C946423E2
:10003000B0C10000AEC10000ACC10000AAC1000008
:10004000A8C10000A6C10000A4C10000A2C1000018
:10005000A0C100009EC100009CC100000C94021FC2
:1000600098C100000C945F200C94352092C10000D0
:1000700090C100008EC100008CC100008AC1000048
:1000800088C1000086C1000084C1000082C1000058
:100090000C940C200C94E21F7CC100000C946E2385
:1000A00078C1000076C1000074C1000072C1000078
:1000B00070C100006EC100006CC100006AC1000088
:1000C00068C1000066C1000064C1000062C1000098
:1000D00060C100005EC100005CC100005AC10000A8
:1000E00058C10000AB16AE169D16A116A716E51650
:1000F000B216B616BC16C016C416CA16CE16D2163E
:10010000E516D816DC16E0160000210024002700B2
:100110002A002D0030003300010100000401070116
:100120000A0100002200250028002B002E003100CB
:10013000340002010000050108010B01000020004D
:100140002300260029002C002F00320000010000AF
:10015000030106010901050505050705080808084A
:10016000020202020A0A080804040404010101014F
:10017000010101010303030303030303040707074A
:100180000C0C0C0C0C0C0C0C0202020206060606EF
:10019000060606060B0B0B0B0B0B0B0B01021020BC
:1001A00020080810204010204080020102010804AD
:1001B0000201010204081020408080402010080441
:1001C000020180040201804020100804020108049A
:1001D00002010102040810204080010204081020DE
:1001E000408000000A0B02090C0D0E0807030401F1
:1001F00000000000000000000000000000000000FF
:1002000000000000000000000000000000001211CB
:1002100010000000000000000000000000000000CE
:1002200000000000000000001F1C1F1E1F1E1F1FDB
:100230001E1F1E1F00407A10F35A00A0724E1809AC
:100240000010A5D4E80000E87648170000E40B543D
:10025000020000CA9A3B000000E1F505000080960C
:100260009800000040420F000000A086010000003E
:10027000102700000000E8030000000064000000F8
:1002800000000A00000000000100000000002C76C1
:10029000D888DC674F0823DFC1DFAE59E1B1B796DC
:1002A000E5E3E453C63AE651997696E8E6C2842639
:1002B000EB898C9B62ED407C6FFCEFBC9C9F40F215
:1002C000BAA56FA5F490055A2AF75C936B6CF96791
:1002D0006DC11BFCE0E40D47FEF520E6B500D0ED56
:1002E000902E0300943577050080841E08000020BE
:1002F0004E0A000000C80C333333330F986E12835C
:100300001141EF8D2114893BE65516CFFEE6DB182F
:10031000D1844B381BF77C1D901DA4BBE4242032F4
:1003200084725E228100C9F124ECA1E53D279A2563
:1003300011241FBECFEFD1E2DEBFCDBF00E00CBF66
:1003400015E0A0E0B2E0E4E7F7E600E00BBF02C092
:1003500007900D92A236B107D9F729E0A2E6B5E0E1
:1003600001C01D92A230B207E1F711E0C8E9D1E067
:1003700000E006C021970109802FFE010E94E329B9
:10038000C739D10780E00807A9F70E94B9260C9465
:10039000B83336CEFC01918D228D892F90E0805CA0
:1003A0009F4F821B91098F739927089580E090E0F9
:1003B000892B21F00E94661E811121C080E090E00F
:1003C000892B21F00E945C1E81111CC080E090E00E
:1003D000892B41F080E090E0892B21F00E94000001
:1003E000811113C080E090E0892BA1F080E090E0C3
:1003F000892B81F00E94000081110AC008950E949B
:100400000000DCCF0E940000E1CF0E940000EACF94
:100410000C94000008952F923F924F925F926F923A
:100420007F928F929F92AF92BF92CF92DF92EF9284
:10043000FF920F931F93CF93DF93CDB7DEB7C058D2
:10044000D1090FB6F894DEBF0FBECDBFC158DF4F44
:1004500099838883CF57D04067965FAF4EAF679739
:10046000DC0118964D905D906D907C901B97659681
:100470004CAE5DAE6EAE7FAE65971C964D905D90B6
:100480006D907C901F9749825A826B827C82509635
:100490004D905D906D907C9053974D825E826F82FF
:1004A000788654964D905D906D907C9057974D86D0
:1004B0005E866F86788A605C7F4FA85ABF4F6996C8
:1004C000BFAFAEAF6997FC01E45AFF4F6B96FFAF29
:1004D000EEAF6B979C01205A3F4F6D963FAF2EAF0A
:1004E0006D978C599F4F6F969FAF8EAF6F97C15886
:1004F000DF4FA881B981CF57D040A859BF4FA196EF
:10050000BFAFAEAFA197C158DF4FE881F981CF5798
:10051000D040E459FF4FA396FFAFEEAFA397C15869
:10052000DF4F28813981CF57D04020593F4FA596C2
:100530003FAF2EAFA597C158DF4F88819981CF5724
:10054000D0408C589F4FA7969FAF8EAFA797C158AA
:10055000DF4FA881B981CF57D040A858BF4FA99687
:10056000BFAFAEAFA997C158DF4F28803980CF57B2
:10057000D040BCE72B0E311CC158DF4FE881F98118
:10058000CF57D040E058FF4FAB96FFAFEEAFAB97E1
:10059000C158DF4F28813981CF57D0402C573F4F6A
:1005A000AD963FAF2EAFAD97C158DF4F888199818F
:1005B000CF57D04088579F4FAF969FAF8EAFAF9722
:1005C000C158DF4FA881B981CF57D040A457BF4F42
:1005D000E196BFAFAEAFE197C158DF4FE881F98137
:1005E000CF57D040E057FF4FE396FFAFEEAFE39712
:1005F000C158DF4F28813981CF57D0402C563F4F0B
:10060000E5963FAF2EAFE597E6966FAFE697E79694
:100610007FAFE797FB01FF97808131968080912C17
:10062000A12CB12C540199248824982A32978081D6
:10063000882A3396808124013501782A498A5A8A8A
:100640006B8A7C8A6996AEADBFAD69974D925D921B
:100650006D927C92139765968CAD9DADAEADBFAD9E
:10066000659788589B45A549B8428D849E84AF8480
:10067000B8884D805E806F80788484249524A62479
:10068000B724C980DA80EB80FC808C209D20AE20CE
:10069000BF202D853E854F85588982269326A42626
:1006A000B526880E991EAA1EBB1E89899A89AB8918
:1006B000BC89880E991EAA1EBB1ED501C40127E065
:1006C000880F991FAA1FBB1F2A95D1F739E1B6944D
:1006D000A794979487943A95D1F7882A992AAA2AB9
:1006E000BB2A8C0C9D1CAE1CBF1C3296808131969F
:1006F000008110E020E030E0980111270027182B3E
:1007000032978081082B3396808128013901782A1D
:100710004D8A5E8A6F8A788E6B96AEADBFAD6B9751
:100720004D925D926D927C9213974D845E846F849E
:100730007888BAEA4B1AB8E45B0AB8E36B0AB7E107
:100740007B0A8D899E89AF89B88D840D951DA61D64
:10075000B71D4D805E806F8078844C245D246E24AC
:100760007F24482059206A207B20CD80DE80EF80C6
:10077000F8844C245D246E247F24480E591E6A1E82
:100780007B1ED301C2015CE0880F991FAA1FBB1F0B
:100790005A95D1F714E176946794579447941A9533
:1007A000D1F7482A592A6A2A7B2A480C591C6A1C04
:1007B0007B1C329680813196C080D12CE12CF12CAB
:1007C0007601DD24CC24D82A32978081C82A33963A
:1007D0008081A7019601582B298F3A8F4B8F5C8F10
:1007E0006D96AEADBFAD6D972D933D934D935C93DC
:1007F0001397CD80DE80EF80F884B5E2CB1ABFE896
:10080000DB0ABFEDEB0ABBEDFB0ADA01C9018C0D77
:100810009D1DAE1DBF1DC980DA80EB80FC80C82401
:10082000D924EA24FB24C420D520E620F7202981FE
:100830003A814B815C81C226D326E426F526C80E78
:10084000D91EEA1EFB1ED701C6012FE0B695A7955B
:10085000979587952A95D1F731E1CC0CDD1CEE1CDC
:10086000FF1C3A95D1F7C82AD92AEA2AFB2AC40CD8
:10087000D51CE61CF71C329620813196808190E0D1
:10088000A0E0B0E0DC0199278827922B32972081E5
:10089000822B3396E0819C01AD015E2B2D8F3E8F24
:1008A0004F8F58A36F96AEADBFAD6F972D933D930D
:1008B0004D935C93139709811A812B813C810251DE
:1008C000114322443E438D8D9E8DAF8DB8A1800F84
:1008D000911FA21FB31F93018201082519252A2504
:1008E0003B250C211D212E213F21082519252A25D4
:1008F0003B25080F191F2A1F3B1FD901C8015AE0C9
:10090000B695A795979587955A95D1F7E6E1000F8B
:10091000111F221F331FEA95D1F7082B192B2A2B01
:100920003B2B0C0D1D1D2E1D3F1DFB01BF97408154
:1009300031965081852F90E0A0E0B0E0DC0199274E
:100940008827942B32974081842B33964081B42B97
:1009500089A39AA3ABA3BCA3A196EEADFFADA197CB
:1009600080839183A283B3838155904FA348BA407B
:10097000880E991EAA1EBB1ED701C6018425952587
:10098000A625B72580239123A223B323842595256B
:10099000A625B725880E991EAA1EBB1ED501C40127
:1009A000E7E0880F991FAA1FBB1FEA95D1F7F9E16D
:1009B000B694A79497948794FA95D1F7882A992AA0
:1009C000AA2ABB2A800E911EA21EB31EFB01BB9752
:1009D000408131965081852F90E0A0E0B0E0DC01AD
:1009E00099278827942B32974081842B3396408116
:1009F000B42B8DA39EA3AFA3B8A7A396EEADFFAD76
:100A0000A39780839183A283B383865D9943A8478C
:100A1000B84B480E591E6A1E7B1ED901C8018C2591
:100A20009D25AE25BF2588219921AA21BB218C2592
:100A30009D25AE25BF25480E591E6A1E7B1ED3017B
:100A4000C201ECE0880F991FAA1FBB1FEA95D1F7DE
:100A5000F4E17694679457944794FA95D1F7482A2D
:100A6000592A6A2A7B2A480C591C6A1C7B1CFB01E8
:100A7000B797408131965081852F90E0A0E0B0E09B
:100A8000DC0199278827942B32974081842B339659
:100A90004081B42B89A79AA7ABA7BCA7A596EEADBA
:100AA000FFADA59780839183A283B3838D5E994B1D
:100AB000AF4CB745C80ED91EEA1EFB1ED501C401B6
:100AC00080279127A227B32784219521A621B7212A
:100AD00080279127A227B327C80ED91EEA1EFB1E26
:100AE000D701C601EFE0B695A79597958795EA954A
:100AF000D1F7F1E1CC0CDD1CEE1CFF1CFA95D1F70F
:100B0000C82AD92AEA2AFB2AC40CD51CE61CF71CE1
:100B1000FB01B397408131965081852F90E0A0E092
:100B2000B0E0DC0199278827942B32974081842BF1
:100B300033964081B42B8DA79EA7AFA7B8ABA796DD
:100B4000EEADFFADA79780839183A283B3838F5FC0
:100B50009A46A94BB240080F191F2A1F3B1FD30109
:100B6000C20188259925AA25BB258C219D21AE216E
:100B7000BF2188259925AA25BB25080F191F2A1FE3
:100B80003B1FD901C801EAE0B695A79597958795CF
:100B9000EA95D1F7F6E1000F111F221F331FFA95D6
:100BA000D1F7082B192B2A2B3B2B0C0D1D1D2E1DAD
:100BB0003F1DFB017F97408131965081852F90E04A
:100BC000A0E0B0E0DC0199278827942B3297408180
:100BD000842B33964081B42B89AB9AABABABBCABC7
:100BE000A996EEADFFADA99780839183A283B383CD
:100BF00088529746AF47B649880E991EAA1EBB1E5B
:100C0000D701C60184259525A625B72580239123E4
:100C1000A223B32384259525A625B725880D991DE4
:100C2000AA1DBB1D4C015D01E7E0880C991CAA1CA4
:100C3000BB1CEA95D1F7F9E1B695A79597958795ED
:100C4000FA95D1F788299929AA29BB29800F911FE4
:100C5000A21FB31FFB017B97408131965081852EE7
:100C6000912CA12CB12C540199248824942A3297D8
:100C70004081842A33964081B42A8DAA9EAAAFAAC5
:100C8000B8AEF10180829182A282B382F1E58F1A1F
:100C9000F8E09F0AFBEBAF0AF4E7BF0A480C591CC7
:100CA0006A1C7B1C480159018C249D24AE24BF245E
:100CB00088229922AA22BB228C249D24AE24BF2400
:100CC000840C951CA61CB71C24013501ECE0440CD7
:100CD000551C661C771CEA95D1F7F4E1B694A794ED
:100CE00097948794FA95D1F784289528A628B72851
:100CF000880E991EAA1EBB1EFB0177974081319674
:100D00005081452E512C612C712C320155244424E4
:100D1000542A32974081442A33964081742A49AE3E
:100D20005AAE6BAE7CAEAB96EEADFFADAB974082EC
:100D3000518262827382FFE44F1AF4EA5F0A61080B
:100D40007108C40CD51CE61CF71C2C013D01402683
:100D5000512662267326482059206A207B2040268F
:100D6000512662267326C40CD51CE61CF71C2601EE
:100D70003701EFE07694679457944794EA95D1F75A
:100D8000F1E1CC0CDD1CEE1CFF1CFA95D1F7C42858
:100D9000D528E628F728C80CD91CEA1CFB1CFB0147
:100DA0007397408131965081452E512C612C712CC6
:100DB000320155244424542A32974081442A3396E0
:100DC0004081742A21964CAE5DAE6EAE7FAE219707
:100DD000AD96EEADFFADAD974082518262827382D7
:100DE000F2E44F1AF8E25F0AF3EA6F0AF6E77F0AC5
:100DF000040D151D261D371D2401350148265926D1
:100E00006A267B264C205D206E207F2048265926AE
:100E10006A267B26040D151D261D371D2801390164
:100E2000EAE07694679457944794EA95D1F7F6E10F
:100E3000000F111F221F331FFA95D1F7042915291E
:100E4000262937290C0D1D1D2E1D3F1DFB013F9727
:100E5000408131965081452E512C612C712C3201EC
:100E600055244424542A32974081442A33964081A1
:100E7000742A25964CAE5DAE6EAE7FAE2597AF96CA
:100E8000EEADFFADAF974082518262827382FEED7C
:100E90004F1AFEEE5F0AFFE66F0AF4E97F0A840D3F
:100EA000951DA61DB71D26013701482459246A2423
:100EB0007B244022512262227322482459246A242E
:100EC0007B24840D951DA61DB71D2C013D01E7E077
:100ED000440C551C661C771CEA95D1F7F9E1B695D0
:100EE000A79597958795FA95D1F784299529A629ED
:100EF000B729800F911FA21FB31FFB013B974081B1
:100F000031965081452E512C612C712C3201552483
:100F10004424542A32974081442A33964081742ACB
:100F200029964CAE5DAE6EAE7FAE2997E196EEADE2
:100F3000FFADE1974082518262827382FDE64F1AD3
:100F4000FEE85F0AF7E66F0AF2E07F0A840C951C60
:100F5000A61CB71C280139014C245D246E247F2473
:100F6000482259226A227B224C245D246E247F244D
:100F7000840C951CA61CB71C24013501ECE0440C24
:100F8000551C661C771CEA95D1F7F4E1B694A7943A
:100F900097948794FA95D1F784289528A628B7289E
:100FA000880E991EAA1EBB1EFB0137974081319601
:100FB0005081452E512C612C712C32015524442432
:100FC000542A32974081442A33964081742A2D96C0
:100FD0004CAE5DAE6EAE7FAE2D97E396EEADFFAD3F
:100FE000E3974082518262827382F2E74F1AFCEBF0
:100FF0005F0AF6E86F0AF9E57F0AC40CD51CE61C07
:10100000F71C2C013D0140265126622673264820FC
:1010100059206A207B204026512662267326C40C64
:10102000D51CE61CF71C26013701EFE07694679487
:1010300057944794EA95D1F7F1E1CC0CDD1CEE1CF6
:10104000FF1CFA95D1F7C428D528E628F728C80C44
:10105000D91CEA1CFB1CFB0133974081319650815F
:10106000452E512C612C712C320155244424542AD4
:1010700032974081442A33964081742A61964CAE5F
:101080005DAE6EAE7FAE6197E596EEADFFADE597D6
:101090004082518262827382FFED4F1AF7EF5F0A3E
:1010A000FBE46F0AF6EB7F0A040D151D261D371DA4
:1010B00024013501482659266A267B264C205D20CE
:1010C0006E207F20482659266A267B26040D151D92
:1010D000261D371D28013901EAE07694679457945C
:1010E0004794EA95D1F7F6E1000F111F221F331F35
:1010F000FA95D1F704291529262937290C0D1D1D2C
:101100002E1D3F1D4D885E886F88788C4EE9441AED
:101110004AED540A41EE640A49E0740A840D951DB3
:10112000A61DB71D280139014C245D246E247F249F
:10113000482059206A207B204C245D246E247F2483
:10114000840D951DA61DB71D2C013D0145E0440CE5
:10115000551C661C771C4A95D1F75BE1B695A7959F
:10116000979587955A95D1F784299529A629B72966
:10117000800F911FA21FB31F49A45AA46BA47CA483
:1011800050EC451A5CE4550A5FEB650A5FE3750AAB
:10119000840C951CA61CB71C2C013D014026512631
:1011A000622673264C205D206E207F20402651262B
:1011B00062267326840C951CA61CB71C24013501DD
:1011C000E9E0440C551C661C771CEA95D1F7F7E161
:1011D000B694A79497948794FA95D1F78428952884
:1011E000A628B728880E991EAA1EBB1E21964CACB5
:1011F0005DAC6EAC7FAC2197EFEA4E1AE5EA5E0A71
:10120000E1EA6E0AE9ED7E0AC40CD51CE61CF71C67
:1012100024013501482659266A267B264022512280
:1012200062227322482659266A267B26C40CD51CC6
:10123000E61CF71C260137014EE0440C551C661CC9
:10124000771C4A95D1F752E1F694E794D794C79466
:101250005A95D1F7C428D528E628F728C80CD91CF8
:10126000EA1CFB1C49885A886B887C88F6E54F1A73
:10127000F8E35F0AF9E46F0AF6E17F0A040D151D31
:10128000261D371D26013701482459246A247B2452
:10129000482259226A227B22482459246A247B242A
:1012A000040D151D261D371D28013901ECE076942B
:1012B000679457944794EA95D1F7F4E1000F111F12
:1012C000221F331FFA95D1F704291529262937291A
:1012D0000C0D1D1D2E1D3F1D4DA05EA06FA078A4FE
:1012E00043EA441A4FEE540A40ED640A49E2740A94
:1012F000840D951DA61DB71D280139014C245D24C0
:101300006E247F24482059206A207B204C245D24B1
:101310006E247F24840D951DA61DB71D2C013D0153
:1013200045E0440C551C661C771C4A95D1F75BE1DF
:10133000B695A795979587955A95D1F784299529BC
:10134000A629B729800F911FA21FB31F49AC5AAC21
:101350006BAC7CAC5DEA451A5BEE550A5BEB650A4B
:101360005DEF750A840C951CA61CB71C2C013D0171
:1013700040265126622673264C205D206E207F2059
:101380004026512662267326840C951CA61CB71C89
:1013900024013501E9E0440C551C661C771CEA95D4
:1013A000D1F7F7E1B694A79497948794FA95D1F77B
:1013B00084289528A628B728880E991EAA1EBB1E29
:1013C00061964CAC5DAC6EAC7FAC6197EFE74E1AAA
:1013D000E9E15E0AEEE56E0AE7E27E0AC40CD51C7E
:1013E000E61CF71C24013501482659266A267B266F
:1013F0004022512262227322482659266A267B26E1
:10140000C40CD51CE61CF71C260137014EE0440C29
:10141000551C661C771C4A95D1F752E1F694E79467
:10142000D794C7945A95D1F7C428D528E628F72829
:10143000C80CD91CEA1CFB1C49A05AA06BA07CA0BC
:10144000F8E34F1AF4E05F0AFCE26F0AF8E17F0A62
:10145000040D151D261D371D26013701482459246A
:101460006A247B24482259226A227B224824592458
:101470006A247B24040D151D261D371D2801390102
:10148000ECE07694679457944794EA95D1F7F4E1A9
:10149000000F111F221F331FFA95D1F704291529B8
:1014A000262937290C0D1D1D2E1D3F1D4DA85EA898
:1014B0006FA878AC4AE1441A42E3540A4EE1640A48
:1014C0004EED740A840D951DA61DB71D2801390126
:1014D0004C245D246E247F24482059206A207B20E0
:1014E0004C245D246E247F24840D951DA61DB71DFC
:1014F0002C013D0145E0440C551C661C771C4A95A7
:10150000D1F75BE1B695A795979587955A95D1F751
:1015100084299529A629B729800F911FA21FB31FDF
:101520002D964CAC5DAC6EAC7FAC2D975AE2451A53
:1015300058EF550A58EC650A5CE3750A840C951C53
:10154000A61CB71C2C013D0140265126622673269D
:101550004C205D206E207F20402651266226732677
:10156000840C951CA61CB71C24013501E9E0440C31
:10157000551C661C771CEA95D1F7F7E1B694A79441
:1015800097948794FA95D1F784289528A628B728A8
:10159000880E991EAA1EBB1E4D8C5E8C6F8C78A087
:1015A000E9E74E1AE2EF5E0AEAE26E0AEBE07E0A33
:1015B000C40CD51CE61CF71C24013501482659260D
:1015C0006A267B264022512262227322482659260F
:1015D0006A267B26C40CD51CE61CF71C26013701A5
:1015E0004EE0440C551C661C771C4A95D1F752E11D
:1015F000F694E794D794C7945A95D1F7C428D52880
:10160000E628F728C80CD91CEA1CFB1C49A85AA8D4
:101610006BA87CA8F3E14F1AFBEE5F0AF5EA6F0AAC
:10162000FAEB7F0A040D151D261D371D2601370113
:10163000482459246A247B24482259226A227B2286
:10164000482459246A247B24040D151D261D371DAA
:1016500028013901ECE07694679457944794EA9511
:10166000D1F7F4E1000F111F221F331FFA95D1F7B4
:101670000429152926293729280139014C0C5D1C1C
:101680006E1C7F1CEB964CAE5DAE6EAE7FAEEB97E4
:1016900029964CAC5DAC6EAC7FAC29972BEF421A0F
:1016A00026E1520A2CE1620A26E5720A840D951D94
:1016B000A61DB71DEB964CAC5DAC6EAC7FACEB974A
:1016C0004C245D246E247F24482059206A207B20EE
:1016D0004C245D246E247F24840D951DA61DB71D0A
:1016E0002C013D0115E0440C551C661C771C1A9515
:1016F000D1F70BE1B695A795979587950A95D1F700
:1017000084299529A629B729EB964CAC5DAC6EAC23
:101710007FACEB97840D951DA61DB71D498C5A8C87
:101720006B8C7C8C28E0421A2CE5520A20E1620A7C
:1017300023E0720A840C951CA61CB71CEB964CACDB
:101740005DAC6EAC7FACEB97482659266A267B26AB
:101750004C205D206E207F20EB962CAD3DAD4EAD34
:101760005FADEB974226532664267526840C951CA4
:10177000A61CB71C2401350129E0440C551C661C2D
:10178000771C2A95D1F737E1B694A794979487945C
:101790003A95D1F784289528A628B728880E991E4F
:1017A000AA1EBB1E4DA45EA46FA478A837E2431AFC
:1017B0003DEF530A30E9630A38E9730AC40CD51CBB
:1017C000E61CF71C24013501482659266A267B268B
:1017D000EB962CAD3DAD4EAD5FADEB974222532263
:1017E00064227522482659266A267B26C40CD51CFD
:1017F000E61CF71C260137014EE0440C551C661C04
:10180000771C4A95D1F752E1F694E794D794C794A0
:101810005A95D1F7C428D528E628F728C80CD91C32
:10182000EA1CFB1C26013701482459246A247B2426
:10183000EF964CAE5DAE6EAE7FAEEF9725964CAC9C
:101840005DAC6EAC7FAC259726E7421A23EB520ABB
:1018500025ED620A22E7720AEB962CAD3DAD4EAD46
:101860005FADEB97420E531E641E751EEF962CADB6
:101870003DAD4EAD5FADEF97282339234A235B235F
:10188000282539254A255B25420E531E641E751EE8
:10189000A3019201ECE05695479537952795EA9577
:1018A000D1F729873A874B875C8793018201F4E15E
:1018B000000F111F221F331FFA95D1F749845A8454
:1018C0006B847C84042915292629372928013901AC
:1018D0004C0C5D1C6E1C7F1CEB964CAE5DAE6EAE70
:1018E0007FAEEB974DA05EA06FA078A42EEB421ABE
:1018F00026EC520A25E0620A7108840D951DA61D8A
:10190000B71DEF964CAC5DAC6EAC7FACEF97EB9631
:101910002CAD3DAD4EAD5FADEB9742265326642610
:101920007526840D951DA61DB71D2C013D0114E0E3
:10193000440C551C661C771C1A95D1F70CE1B69522
:10194000A795979587950A95D1F784299529A62972
:10195000B729820F931FA41FB51F49A85AA86BA8C7
:101960007CA83FE7431A39E0530A3EE8630A38E7A8
:10197000730A840C951CA61CB71CEB964CAC5DAC92
:101980006EAC7FACEB974C245D246E247F244826FC
:1019900059266A267B26840C951CA61CB71C24019C
:1019A00035012BE0440C551C661C771C2A95D1F799
:1019B00035E1B694A794979487943A95D1F7842803
:1019C0009528A628B728880E991EAA1EBB1E219608
:1019D0004CAC5DAC6EAC7FAC21974EED441A4EE939
:1019E000540A42E6640A42E9740AC40CD51CE61C97
:1019F000F71CEB964CAC5DAC6EAC7FACEB9748261D
:101A000059266A267B26482459246A247B24C40C40
:101A1000D51CE61CF71CF60167017F01C80CD91C18
:101A2000EA1CFB1C2D964CAC5DAC6EAC7FAC2D97CC
:101A3000F4EF4F1AF7EC5F0AFAE16F0AF2E07F0A5F
:101A4000EB960CAD1DAD2EAD3FADEB97040D151D06
:101A5000261D371D24013501482659266A267B2676
:101A60004C245D246E247F24040D151D261D371D76
:101A70002801390149E076946794579447944A9530
:101A8000D1F757E1000F111F221F331F5A95D1F7CD
:101A900004291529262937290C0D1D1D2E1D3F1D32
:101AA0004D885E886F88788C4CEB441A45E1540A67
:101AB00041E4640A4BE5740A840D951DA61DB71D0B
:101AC00026013701482459246A247B2440265126C4
:101AD00062267326840D951DA61DB71D2C013D01A0
:101AE000E4E0440C551C661C771CEA95D1F7FCE138
:101AF000B695A79597958795FA95D1F78429952955
:101B0000A629B729800F911FA21FB31F49A05AA071
:101B10006BA07CA057E5451A50E3550A51E2650ACF
:101B200054EB750A840C951CA61CB71C28013901BE
:101B30004C245D246E247F24482659266A267B2661
:101B4000840C951CA61CB71C240135014BE0440CE9
:101B5000551C661C771C4A95D1F755E1B694A7949D
:101B6000979487945A95D1F784289528A628B72862
:101B7000880E991EAA1EBB1E4DA45EA46FA478A851
:101B8000E0EA4E1AE4EB5E0AE4E46E0AE9E07E0A5B
:101B9000C40CD51CE61CF71C2C013D014026512627
:101BA00062267326482459246A247B24C40CD51C3D
:101BB000E61CF71C260167017201C80CD91CEA1C3F
:101BC000FB1C49AC5AAC6BAC7CAC40E9441A43E416
:101BD000540A40E4640A41E4740A040D151D261DEC
:101BE000371D24013501482659266A267B264C24B8
:101BF0005D246E247F24040D151D261D371D28012C
:101C00003901E9E07694679457944794EA95D1F7BF
:101C1000F7E1000F111F221F331FFA95D1F7042996
:101C20001529262937290C0D1D1D2E1D3F1D29960E
:101C30004CAC5DAC6EAC7FAC29975AE3451A51E8C9
:101C4000550A54E6650A57ED750A840D951DA61DC3
:101C5000B71D26013701482459246A247B244026D5
:101C6000512662267326480E591E6A1E7B1ED3011A
:101C7000C20144E0880F991FAA1FBB1F4A95D1F7E4
:101C80005CE176946794579447945A95D1F7482A23
:101C9000592A6A2A7B2A400E511E621E731E8989A8
:101CA0009A89AB89BC898650984DAE45B541880E5E
:101CB000991EAA1EBB1ED901C8018C259D25AE25E3
:101CC000BF2584259525A625B725880D991DAA1D14
:101CD000BB1D4C015D01EBE0880C991CAA1CBB1CD0
:101CE000EA95D1F7F5E1B695A79597958795FA9579
:101CF000D1F788299929AA29BB29840D951DA61DEC
:101D0000B71D8D8C9E8CAF8CB8A0EBE78E1AEFECD4
:101D10009E0AE0E1AE0AEBE2BE0AC80CD91CEA1C3E
:101D2000FB1C5301420180269126A226B326882659
:101D30009926AA26BB26C80CD91CEA1CFB1C460106
:101D400067017401C80ED91EEA1EFB1E89A49AA45D
:101D5000ABA4BCA44BEF841A42EE940A47E7A40A52
:101D60004BEFB40A080D191D2A1D3B1D4C015D01E6
:101D700084249524A624B7248C249D24AE24BF2437
:101D8000080D191D2A1D3B1D4801590149E0B69453
:101D9000A794979487944A95D1F757E1000F111FA4
:101DA000221F331F5A95D1F7082919292A293B29BF
:101DB0000C0D1D1D2E1D3F1D8DA89EA8AFA8B8ACF3
:101DC00057EC851A5FE2950A5BE2A50A56E2B50A6E
:101DD000480C591C6A1C7B1C460157018826992611
:101DE000AA26BB2680269126A226B326480C591C7B
:101DF0006A1C7B1C53014201E4E0880C991CAA1C5C
:101E0000BB1CEA95D1F7FCE176946794579447940C
:101E1000FA95D1F7482859286A287B28400E511E88
:101E2000621E731E25968CAC9DACAEACBFAC2597E4
:101E3000EBE18E1AE6E69E0AE4E2AE0AE9E1BE0AAA
:101E4000880D991DAA1DBB1D480159018C249D2494
:101E5000AE24BF2484249524A624B724880D991D7C
:101E6000AA1DBB1D4C015D014BE0880C991CAA1CEE
:101E7000BB1C4A95D1F755E1B695A79597958795DF
:101E80005A95D1F788299929AA29BB29840D951D2E
:101E9000A61DB71D61968CAC9DACAEACBFAC619776
:101EA000F8E08F1AF3E89F0AFDE5AF0AF0EEBF0AEB
:101EB000C80CD91CEA1CFB1C530142018026912648
:101EC000A226B32688269926AA26BB26C80CD91C8A
:101ED000EA1CFB1C460167017401C80ED91EEA1EEC
:101EE000FB1E898C9A8CAB8CBC8C4BE9841A49EA1A
:101EF000940A43E5A40A4BE3B40A080D191D2A1DF0
:101F00003B1D4C015D0184249524A624B7248C2418
:101F10009D24AE24BF24080D191D2A1D3B1D480118
:101F20005901E9E0B694A79497948794EA95D1F77C
:101F3000F7E1000F111F221F331FFA95D1F708296F
:101F400019292A293B290C0D1D1D2E1D3F1D89888D
:101F50009A88AB88BC885CEB851A5DED950A56EDD6
:101F6000A50A5BE0B50A480C591C6A1C7B1C4C0195
:101F70005D0180949094A094B094802A912AA22A22
:101F8000B32A8C249D24AE24BF24480C591C6A1CFF
:101F90007B1C5301420146E0880C991CAA1CBB1C07
:101FA0004A95D1F75AE176946794579447945A9595
:101FB000D1F7482859286A287B28400E511E621EF6
:101FC000731E8DA49EA4AFA4B8A8E9E68E1A91084A
:101FD000E5EDAE0AECEBBE0A880D991DAA1DBB1DEE
:101FE0004601570180949094A094B0948428952839
:101FF000A628B72880269126A226B326880D991DEB
:10200000AA1DBB1D4C015D01EAE0880C991CAA1CAD
:10201000BB1CEA95D1F7F6E1B695A79597958795FC
:10202000FA95D1F788299929AA29BB29840D951DEC
:10203000A61DB71D2D968CAC9DACAEACBFAC2D973C
:10204000F9E58F1AFCED9F0AFBE6AF0AF4E5BF0A3B
:10205000C80CD91CEA1CFB1C4801590180949094BF
:10206000A094B094882A992AAA2ABB2A8424952469
:10207000A624B724C80CD91CEA1CFB1C4601570136
:102080004FE0880C991CAA1CBB1C4A95D1F751E162
:10209000F694E794D794C7945A95D1F7C828D928CD
:1020A000EA28FB28C80ED91EEA1EFB1E8DA09EA0A2
:1020B000AFA0B8A447EC841A4FE5940A4CE6A40AF2
:1020C00043E0B40A080D191D2A1D3B1D53014201AE
:1020D00080949094A094B0948C289D28AE28BF281A
:1020E00088269926AA26BB26080D191D2A1D3B1DE8
:1020F00048015901EBE0B694A79497948794EA9528
:10210000D1F7F5E1000F111F221F331FFA95D1F708
:10211000082919292A293B290C0D1D1D2E1D3F1D9B
:1021200025968CAC9DACAEACBFAC25975DE3851A13
:1021300056EA950A54EAA50A5AE9B50A480C591C08
:102140006A1C7B1C4C015D0180949094A094B09417
:10215000802A912AA22AB32A8C249D24AE24BF244B
:10216000480C591C6A1C7B1C5301420146E0880C38
:10217000991CAA1CBB1C4A95D1F75AE17694679426
:10218000579447945A95D1F7482859286A287B28AC
:10219000400E511E621E731E8D8C9E8CAF8CB8A09B
:1021A000EEE68E1AE3E39E0AE3EFAE0AE0E7BE0A2C
:1021B000880D991DAA1DBB1D46015701809490945E
:1021C000A094B09484289528A628B7288026912624
:1021D000A226B326880D991DAA1DBB1D4C015D01C9
:1021E000EAE0880C991CAA1CBB1CEA95D1F7F6E121
:1021F000B695A79597958795FA95D1F78829992946
:10220000AA29BB29840D951DA61DB71D89AC9AACC2
:10221000ABACBCACF3E88F1AFBE09F0AF0E1AF0A6D
:10222000B108C80CD91CEA1CFB1C48015901809458
:102230009094A094B094882A992AAA2ABB2A84242C
:102240009524A624B724C80CD91CEA1CFB1C460103
:1022500057014FE0880C991CAA1CBB1C4A95D1F76A
:1022600051E1F694E794D794C7945A95D1F7C828CA
:10227000D928EA28FB28C80ED91EEA1EFB1E8D8825
:102280009E88AF88B88C4FE2841A42EA940A4BE7E2
:10229000A40A4AE7B40A080D191D2A1D3B1D530163
:1022A000420180949094A094B0948C289D28AE28EC
:1022B000BF2888269926AA26BB26080D191D2A1D87
:1022C0003B1D48015901EBE0B694A794979487947D
:1022D000EA95D1F7F5E1000F111F221F331FFA9580
:1022E000D1F7082919292A293B290C0D1D1D2E1D5E
:1022F0003F1D89A89AA8ABA8BCA851EB851A51E844
:10230000950A57E5A50A50E9B50A480C591C6A1CFC
:102310007B1C4C015D0180949094A094B094802A21
:10232000912AA22AB32A8C249D24AE24BF24840C93
:10233000951CA61CB71C2401350146E0440C551C15
:10234000661C771C4A95D1F75AE1B694A7949794E6
:1023500087945A95D1F784289528A628B728800E07
:10236000911EA21EB31E61964CAC5DAC6EAC7FACF0
:102370006197E0E24E1AE9E15E0AE3ED6E0AE1E000
:102380007E0A840D951DA61DB71D260137014094B8
:10239000509460947094482859286A287B284026D5
:1023A000512662267326840D951DA61DB71D2C018E
:1023B0003D01EAE0440C551C661C771CEA95D1F7F8
:1023C000F6E1B695A79597958795FA95D1F7842963
:1023D0009529A629B729880D991DAA1DBB1D49A4B9
:1023E0005AA46BA47CA4FCEE4F1AFCEB5F0AFEEF30
:1023F0006F0AFCE57F0AC40CD51CE61CF71C2801FB
:1024000039014094509460947094482A592A6A2A59
:102410007B2A482459246A247B24C40CD51CE61C3E
:10242000F71C260137014FE0440C551C661C771C35
:102430004A95D1F751E1F694E794D794C7945A9509
:10244000D1F7C428D528E628F728C80ED91EEA1ED9
:10245000FB1E29964CAC5DAC6EAC7FAC29974FE56A
:10246000441A4EEE540A47EF640A41EB740A400ED8
:10247000511E621E731E95018401009510952095D2
:1024800030950C291D292E293F29082719272A278D
:102490003B27040D151D261D371D28013901EBE0D2
:1024A0007694679457944794EA95D1F7F5E1000F35
:1024B000111F221F331FFA95D1F704291529262948
:1024C00037290C0D1D1D2E1D3F1D49A05AA06BA0C4
:1024D0007CA05EE7451A51E8550A5CEA650A58E0B7
:1024E000750A840C951CA61CB71C2C013D01409458
:1024F000509460947094402A512A622A732A4C2482
:102500005D246E247F24840C951CA61CB71C24011A
:10251000350146E0440C551C661C771C4A95D1F7E2
:102520005AE1B694A794979487945A95D1F7842842
:102530009528A628B728800E911EA21EB31E2196AC
:102540004CAC5DAC6EAC7FAC2197EBEC4E1AEDE081
:102550005E0AE5EC6E0AE2E47E0A840D951DA61D76
:10256000B71D260137014094509460947094482818
:1025700059286A287B284026512662267326840D16
:10258000951DA61DB71D2C013D01EAE0440C551C0C
:10259000661C771CEA95D1F7F6E1B695A795979555
:1025A0008795FA95D1F784299529A629B729880D09
:1025B000991DAA1DBB1D498C5A8C6B8C7C8CF5E433
:1025C0004F1AFDE25F0AF8E26F0AF5ED7F0AC40CCC
:1025D000D51CE61CF71C28013901409450946094E6
:1025E0007094482A592A6A2A7B2A482459246A2442
:1025F0007B24C40CD51CE61CF71C260137014FE0D8
:10260000440C551C661C771C4A95D1F751E1F69491
:10261000E794D794C7945A95D1F7C428D528E628CB
:10262000F728C80ED91EEA1EFB1E4DA85EA86FA88B
:1026300078AC4FE6441A4CE2540A49E7640A44E194
:10264000740A040D151D261D371D24013501409403
:102650005094609470944C285D286E287F284826FA
:1026600059266A267B26040D151D261D371D2801B7
:102670003901EBE07694679457944794EA95D1F743
:10268000F5E1000F111F221F331FFA95D1F704291E
:1026900015292629372965964CAC5DAC6EAC7FAC0C
:1026A0006597480C591C6A1C7B1C65964CAE5DAE48
:1026B0006EAE7FAE65970C0D1D1D2E1D3F1D6980F2
:1026C0007A808B809C80600E711E821E931E6982B0
:1026D0007A828B829C828D809E80AF80B8848C0CA5
:1026E0009D1CAE1CBF1C8D829E82AF82B886AD84BD
:1026F000BE84CF84D888A80EB91ECA1EDB1EAD8644
:10270000BE86CF86D88A67962EAD3FAD6797205498
:10271000310967963FAF2EAF6797605C7F4F232BE1
:1027200011F00C94040365968CAD9DADAEADBFADBC
:102730006597C158DF4FE881F981CF57D040808736
:102740009187A287B38749805A806B807C804486BA
:102750005586668677864D805E806F807884408A55
:10276000518A628A738AA48AB58AC68AD78AE6960B
:102770008FADE697E7969FADE797C058DF4F0FB64E
:10278000F894DEBF0FBECDBFDF91CF911F910F91A7
:10279000FF90EF90DF90CF90BF90AF909F908F9081
:1027A0007F906F905F904F903F902F900895FC0125
:1027B000848DDF01A80FB11DA35ABF4F2C91848DCA
:1027C00090E001968F739927848FA689B7892C93FF
:1027D000A089B1898C9180648C93938D848D98139A
:1027E00006C00288F389E02D80818F7D8083089563
:1027F0008F929F92AF92BF92CF92DF92EF92FF9211
:102800000F931F93CF93DF93CDB7DEB7CA59D1098A
:102810000FB6F894DEBF0FBECDBFBC0180E190E0E3
:10282000C756DF4F6883C959D040C656DF4F7883FB
:10283000CA59D0400E94CE2E8C0181E093E2A5E4DB
:10284000B7E689879A87AB87BC8789E89BEAADECB6
:10285000BFEE8D879E87AF87B88B8EEF9CEDAAEB7E
:10286000B8E9898B9A8BAB8BBC8B86E794E5A2E3A6
:10287000B0E18D8B9E8BAF8BB88F19821A821B8231
:102880001C821D821E821F821886C756DF4F6881F8
:10289000C959D040C656DF4F7881CA59D040FB0194
:1028A00001900020E9F731977F01E61AF70AC70186
:1028B000A0E0B0E089839A83AB83BC83CE0101960C
:1028C0006C0190E4E916F10448F0A701407CC601D0
:1028D0000E940B02BC01EFE3EE22FF24A701CE0110
:1028E00049960E94B52B89809A80AB80BC80FFE31B
:1028F0008F229924AA24BB24D501C4010196A11DCD
:10290000B11DE9E1F0E0EC0FFD1FE80DF91D20E835
:1029100020834FE350E060E070E0481959096A09EC
:102920007B094830510561057105B0F4489660E0B7
:1029300070E08C0D9D1D0E94BE2B40E450E0BE0156
:10294000675E7F4FC6010E940B0240E450E060E0EA
:1029500070E080E090E0DC0148505109489660E06A
:1029600070E08C0D9D1D0E94BE2B89819A81AB81E8
:10297000BC8123E0880F991FAA1FBB1F2A95D1F79E
:1029800089839A83AB83BC8362968FAF6297639689
:102990009FAF63976496AFAF64976596BFAF659737
:1029A0003D812E819F81888566963FAF66976796A9
:1029B0002FAF679768969FAF689769968FAF6997B3
:1029C00040E450E0BE01675E7F4FC6010E940B02EB
:1029D00039852A859B858C85F801308321839283F4
:1029E00083833D852E859F858889348325839683BF
:1029F000878339892A899B898C89308721879287A7
:102A000083873D892E899F89888D3487258796877E
:102A1000878788E9F60111928A95E9F7C801C656B9
:102A2000DF4F0FB6F894DEBF0FBECDBFDF91CF9161
:102A30001F910F91FF90EF90DF90CF90BF90AF90DC
:102A40009F908F900895CF92DF92EF92FF920F9315
:102A50001F93CF93DF93EC0181E08093620588E6BA
:102A60008093C70510929B0810929A0860E08AE054
:102A700097E00E94152180919A08813208F045C0A4
:102A8000909199089111FCCF92E09093990891E070
:102A9000909398089FEF9093A6051092A5058093B8
:102AA000A405A3E6B5E023E835E0F9019E2F921BCB
:102AB000981718F49D919193F9CF1092A3058091E6
:102AC000A305806D8093A30580919708813061F400
:102AD000109297088091A3058093BB008091BC0061
:102AE00083FDF8CF85EC01C085EE8093BC0080911A
:102AF00099088230E1F38091A6058F3F31F08091F3
:102B0000A605803211F08091A60510929B081092C4
:102B10009A0810926205809199088111FCCF81E09A
:102B200080939908809398089FEF9093A605109240
:102B3000A50596E09093A4058093A3058091A30535
:102B4000806D8093A30580919708813061F4109285
:102B500097088091A3058093BB008091BC0083FD02
:102B6000F8CF85EC01C085EE8093BC008091990878
:102B70008130E1F38091A505873018F48091A50597
:102B800001C087E0A3E8B5E027EA35E0F9019E2F10
:102B9000921B981718F49D919193F9CF10929D086C
:102BA00080939C088AE097E00E9498208F77982F66
:102BB00092959F701AEF082F919F000D11248AE0C3
:102BC00097E00E9498209C01332794E03595279543
:102BD0009A95E1F7F82E129FF00C11248AE097E005
:102BE0000E9498209C01332744E0359527954A950B
:102BF000E1F7E82E129FE00C11248AE097E00E9492
:102C000098208AE097E00E9498209C01332754E0A6
:102C1000359527955A95E1F7D82E129FD00C11249F
:102C20008AE097E00E9498209C01332764E0359564
:102C300027956A95E1F7C82E129FC00C11248AE0EF
:102C400097E00E9498209C01332774E035952795E2
:102C50007A95E1F7129F800D11248883C982DA8268
:102C6000EB82FC820D83CE01DF91CF911F910F91FA
:102C7000FF90EF90DF90CF900895EF92FF920F9327
:102C80001F93CF93DF938C0106551F4FD801ED9111
:102C9000FC913A97E4F5FC01B896C0E0D0E0A19130
:102CA000B191AB2B81F52115310589F17E01EE0C37
:102CB000FF1CEE0CFF1CE80EF91EF70144AF55AFE8
:102CC00066AF77AFFE01EE0FFF1FE80FF91F31A7C8
:102CD00020A7EC59FF4F118210828C0F9D1FFC0121
:102CE000E457FF4F81E080837BD2D7016D937D93C2
:102CF0008D939C931397F801808191810196918324
:102D00008083CE0106C02196CA30D10541F68FEFEF
:102D10009FEFDF91CF911F910F91FF90EF9008955A
:102D200090E0FC013197E231F10508F04EC08827B0
:102D3000EE58FF4F8F4F0C94E329809180008F77DE
:102D400003C0809180008F7D8093800008958091E2
:102D50008000877FF9CF84B58F7702C084B58F7DDF
:102D600084BD08958091B0008F7703C08091B0003A
:102D70008F7D8093B0000895809190008F7707C079
:102D8000809190008F7D03C080919000877F809319
:102D9000900008958091A0008F7707C08091A000D7
:102DA0008F7D03C08091A000877F8093A00008954D
:102DB000809120018F7707C0809120018F7D03C013
:102DC00080912001877F809320010895CF93DF9326
:102DD000282F30E0F901EE51FE4F8491F901E456BD
:102DE000FE4FD491F901EA5AFE4FC491CC2389F0E9
:102DF000811196DFEC2FF0E0EE0FFF1FE45CFE4F39
:102E0000A591B491EC91ED2381E090E021F480E074
:102E100002C080E090E0DF91CF9108953FB7F89431
:102E20008091CC059091CD05A091CE05B091CF05B4
:102E300026B5A89B05C02F3F19F00196A11DB11D15
:102E40003FBFBA2FA92F982F8827820F911DA11D50
:102E5000B11DBC01CD0142E0660F771F881F991F8D
:102E60004A95D1F70895CF93DF93D82FC92F81E2E8
:102E700090E00E94CE2E2D2F3C2FDC011196AC014C
:102E80004F5D5F4FE901E9919E01BD0161507109FC
:102E9000CE2FD0E0F4E0D595C795FA95E1F7CE5462
:102EA000DD4FF881EB01F883EF70F0E0EE54FD4F59
:102EB00060816C931296A417B50721F7FC0110A24C
:102EC000DF91CF910895EF92FF920F931F9360913E
:102ED0007D0830917C08432F50E080917E0890E07F
:102EE000E8E2F2E021E02E1B722F7E0F761728F425
:102EF0007491870F911D3196F7CF633018F03370BE
:102F000009F401966DE671E0469F9001479F300DF0
:102F1000569F300D1124215031094D5F5F4F56955A
:102F2000479556954795240F351F280F391FA8E15F
:102F3000B0E00E94A93320917F087B018C01E20E52
:102F4000F11C011D111DA8019701ACE3B0E00E9426
:102F50009F33209180087B018C01E20EF11C011D42
:102F6000111DA80197010E949F3320918108DC0167
:102F7000CB01820F911DA11DB11DBC01CD01605877
:102F80007C4B8249974C1F910F91FF90EF900895D1
:102F90008F929F92AF92BF92CF92DF92EF92FF9269
:102FA0000F931F93CF93DF93CDB7DEB7A1970FB6E3
:102FB000F894DEBF0FBECDBF6C01990FEE08FF087D
:102FC000F7FE32C0E0916D06F0916E060190F0813F
:102FD000E02D6DE28DE696E019958C0122273327CE
:102FE000A9012C193D094E095F0919A2CE0181964C
:102FF0007C019AE0892E912CA12CB12CCA01B90137
:10300000A50194010E94C129605DF70162937F01CF
:10301000211531054105510589F7BF018DE696E07F
:10302000AAD7080F191F1FC0A701960119A28E0168
:103030000F5D1F4F8AE0C82ED12CE12CF12CCA0164
:10304000B901A70196010E94C129605DF801629350
:103050008F01211531054105510589F7BF018DE625
:1030600096E089D78C0163EE72E08DE696E083D717
:10307000800F911FA1960FB6F894DEBF0FBECDBF93
:10308000DF91CF911F910F91FF90EF90DF90CF9044
:10309000BF90AF909F908F9008951F93CF93DF9331
:1030A000282F30E0F901EE51FE4F8491F901E456EA
:1030B000FE4FD491F901EA5AFE4FC491CC23C1F0DE
:1030C000162F81112DDEEC2FF0E0EE0FFF1FEE5DCD
:1030D000FE4FA591B4918FB7F894111105C09C9142
:1030E000ED2FE095E92302C0EC91ED2BEC938FBF1F
:1030F000DF91CF911F910895CF93DF9390E0FC0172
:10310000E456FE4F2491FC01EA5AFE4F8491882335
:1031100061F190E0880F991FFC01E85FFE4FC591B7
:10312000D491FC01EE5DFE4FA591B491611109C0EF
:103130009FB7F8948881209582238883EC912E2371
:103140000BC0623061F49FB7F8943881822F80956C
:1031500083238883EC912E2B2C939FBF06C08FB7BF
:10316000F894E8812E2B28838FBFDF91CF910895AB
:103170008F929F92AF92BF92CF92DF92EF92FF9287
:103180006B017C014BDE4B015C01C114D104E104F5
:10319000F104E9F043DEDC01CB0188199909AA09A1
:1031A000BB09883E9340A105B10578F321E0C21A1E
:1031B000D108E108F10888EE880E83E0981EA11C72
:1031C000B11CC114D104E104F10421F7DECFFF905A
:1031D000EF90DF90CF90BF90AF909F908F90089529
:1031E0002FB7F8946091C8057091C9058091CA0500
:1031F0009091CB052FBF0895EF92FF920F931F93ED
:10320000CF93DF9361E08091740847DF6AEF70E04D
:1032100080E090E0ADDFE4DF00917708109178085E
:103220002091790830917A08601771078207930717
:1032300040F4109277081092780810927908109252
:103240007A0820917B08211115C000917708109110
:1032500078082091790830917A08DC01CB01801B35
:10326000910BA20BB30B803D9740A105B10510F463
:1032700081E076C010927B08B3DF6093770870938B
:1032800078088093790890937A08109272081092C7
:1032900071081092700810926F0810926E0861E029
:1032A0008091740829DF60E080917408F6DE64E1A3
:1032B00070E080E090E05CDFF89461E08091740859
:1032C000ECDE8BE990E00197F1F760E08091740803
:1032D00013DF10E0C0E081E0D0E0E82EF12C809117
:1032E000740874DD8E159F0519F4DF5FDF3FB9F7B1
:1032F000809174086BDDDF3FC1F0C43098F0C0FDF1
:1033000011C0E12FE695E695E695F0E0E259F74F1A
:103310009081990F9083209176082D1710F4916079
:1033200090831F5FCF5FC535B9F678941832B8F037
:103330002091720830E040916E0880916F0890E013
:10334000840F911D40917008840F911D4091710868
:10335000840F911D99272817390709F489CF80E038
:10336000DF91CF911F910F91FF90EF9008950F93F0
:103370001F9336DF6093D8057093D9058093DA05E3
:103380009093DB05E091D005F091D1050680F7819F
:10339000E02D80ED95E0199597FF1EC021DF00918B
:1033A000D8051091D9052091DA053091DB05DC01B3
:1033B000CB01801B910BA20BB30B0091D405109194
:1033C000D5052091D6053091D70580179107A20722
:1033D000B307C0F28FEF9FEF1F910F910895EF9207
:1033E000FF920F931F93CF93DF937B018C01C0E07B
:1033F000D0E0CE15DF0541F0BADF97FD05C0F8013A
:1034000081938F012196F5CFCE01DF91CF911F914E
:103410000F91FF90EF900895CF93DF93EC0165EE4D
:1034200072E06AD5A4DF97FD04C0682FCE0134D5C1
:10343000F9CFCE01DF91CF9108952F923F924F9215
:103440005F926F927F928F929F92AF92BF92CF9234
:10345000DF92EF92FF920F931F93CF93DF93CDB73D
:10346000DEB7CE51D1400FB6F894DEBF0FBECDBF50
:10347000D82EC92E2A013B01C95EDE4F2883C751D1
:10348000D140C85EDE4F3883C851D140C75EDE4FA1
:10349000E882C951D140C65EDE4FF882CA51D140A0
:1034A000C55EDE4F0883CB51D140C45EDE4F18832A
:1034B000CC51D1402DB73EB7CB5EDE4F3983288348
:1034C000C551D1408FE7E82E82E0F82ED7010D904C
:1034D0000020E9F79D01E6E7F2E0DF010D90002012
:1034E000E9F72A0F3B1F9DE6A92E92E0B92ED501E0
:1034F0000D900020E9F71197CD018D569240285785
:1035000032402D573240820F931F2DB73EB7281BF4
:10351000390B0FB6F8943EBF0FBE2DBF0DB71EB7C7
:103520000F5F1F4FFF93EF93BF92AF92FF92EF9207
:103530008FEE92E09F938F931F930F930E94E62B41
:10354000C80156D9CB5FDE4F99838883C550D140DF
:103550008ADCC55FDE4F8883CB50D140C45FDE4F2D
:103560009883CC50D140ABE1B2E00D900020E9F758
:1035700025E0222E22E0322EF10101900020E9F711
:10358000CD018E0F9F1F875092408A5192404DB7B8
:103590005EB7465F5F4F0FB6F8945EBF0FBE4DBF7C
:1035A000ADB7BEB7A81BB90B0FB6F894BEBF0FBE20
:1035B000ADBF0DB71EB70F5F1F4F3F922F92ABE10C
:1035C000B2E0BF93AF9382EF92E09F938F931F93EC
:1035D0000F930E94E62BC8010BD9C95FDE4F998378
:1035E0008883C750D1403FDCC35FDE4F8883CD5016
:1035F000D140C25FDE4F9883CE50D140ED2DFC2DDF
:10360000DF010D900020E9F711979D012E1B3F0B64
:10361000A4E6B2E00D900020E9F7E3E5F2E00190C6
:103620000020E9F73197CF0183559240EEE4F2E0B4
:1036300001900020E9F73197EE54F240A20FB31F3A
:10364000AE51B240A80FB91FEA0FFB1F2DB73EB70E
:10365000285F3F4F0FB6F8943EBF0FBE2DBF4DB74A
:103660005EB74E1B5F0B0FB6F8945EBF0FBE4DBF2B
:103670000DB71EB70F5F1F4FC25FDE4F5881CE5090
:10368000D1405F93C35FDE4F2881CD50D1402F934F
:10369000AEE4B2E0BF93AF93A3E5B2E0BF93AF93C4
:1036A000A4E6B2E0BF93AF93CF92DF92C45FDE4F48
:1036B0002881CC50D1402F93C55FDE4F3881CB504D
:1036C000D1403F9386EE92E09F938F931F930F9389
:1036D0000E94E62BC8018CD8C75FDE4F9983888390
:1036E000C950D140C0DB8C01D7010D900020E9F713
:1036F000F50101900020E9F7AD014E0F5F1FC15F9A
:10370000DE4F59834883CF50D140ED2DFC2DDF0192
:103710000D900020E9F711974D018E1A9F0AF101D3
:1037200001900020E9F73197CF0185509240CF5E9C
:10373000DE4F99838883C151D1408AE492E0FC0135
:1037400001900020E9F73197DF01AA54B240CD5E25
:10375000DE4FB983A883C351D140F8010190002006
:10376000E9F731979F01201B310BC35EDE4F398390
:103770002883CD51D140EEE4F2E001900020E9F73A
:103780003197EE54F240A4E6B2E00D900020E9F744
:10379000BD016150710964567240A3E5B2E00D901D
:1037A0000020E9F7AD014150510943555240C15F36
:1037B000DE4F28813981CF50D1402F5632402E57CD
:1037C0003240280D391DCF5EDE4FA881B981C1512D
:1037D000D1402A0F3B1FCD5EDE4FA881B981C35176
:1037E000D1402A0F3B1FC35EDE4FA881B981CD5166
:1037F000D1402A0F3B1F2E0F3F1F260F371F240FCC
:10380000351FEDB7FEB770960FB6F894FEBF0FBE2A
:10381000EDBF4DB75EB7421B530B0FB6F8945EBFBA
:103820000FBE4DBFADB7BEB711964D01A3E5B2E0D7
:10383000BF93AF93A4E6B2E0BF93AF93AEE4B2E020
:10384000BF93AF931F930F939F938F933F922F92AA
:10385000CF92DF92BF92AF92FF92EF9288EF92E009
:103860009F938F939F928F920E94E62BC8010E9494
:10387000632FC55FDE4F8881CB50D140C45FDE4FE0
:103880009881CC50D1400E94632FC35FDE4F888166
:10389000CD50D140C25FDE4F9881CE50D1400E94C2
:1038A000632FCB5FDE4F88819981C550D1400E9444
:1038B000632FC95FDE4F88819981C750D1400E9434
:1038C000632FC75FDE4F88819981C950D1400E9424
:1038D000632F7E01FDEFEF0EF11C65EE72E0C70174
:1038E0000E94C52BF70101900020E9F78F010150DC
:1038F000110922E042E0C301B2010E94AF2EFF9203
:10390000EF92C45EDE4F3881CC51D1403F93C55E0B
:10391000DE4F5881CB51D1405F93C65EDE4F388178
:10392000CA51D1403F93C75EDE4F5881C951D14043
:103930005F93C85EDE4F3881C851D1403F93C95E66
:10394000DE4F5881C751D1405F9380E092E09F9352
:103950008F938EE793E09F938F935E0189E9A80E82
:10396000B11CBF92AF920E94E62BF501019000209E
:10397000E9F73197EA19FB09ADB7BEB794960FB6D0
:10398000F894BEBF0FBEADBFFF93EF9386EB93E0FD
:103990009F938F9302E818E01F930F930E94E62BEA
:1039A000ABE1B2E00D900020E9F7F10101900020B9
:1039B000E9F7CD018E0F9F1F8750924080519240B2
:1039C0000F900F900F900F900F900F90EDB7FEB7E4
:1039D000E81BF90B0FB6F894FEBF0FBEEDBF2DB775
:1039E0003EB72F5F3F4F69013F922F92ABE1B2E0AC
:1039F000BF93AF9388EC93E09F938F93DF922F93C5
:103A00000E94E62BEEE3F2E0DF010D900020E9F7E3
:103A1000CD01885392402DB73EB7285F3F4F0FB678
:103A2000F8943EBF0FBE2DBF4DB75EB7481B590B74
:103A30000FB6F8945EBF0FBE4DBF8DB79EB701960F
:103A40007C01FF93EF9387ED93E09F938F93FF9219
:103A5000EF920E94E62BF40101900020E9F73197E4
:103A60003F0168187908F60101900020E9F79F01ED
:103A7000215031092C193D09F70101900020E9F787
:103A8000BF01615071096E197F09A0E2B2E00D908B
:103A90000020E9F71197CD0180529240D5010D9099
:103AA0000020E9F71197AD014A195B09D8010D9083
:103AB0000020E9F711978D0102581840260D371D97
:103AC000235F3F4F260F371F820F931F480F591F49
:103AD000040F151F1F930F9380EE93E09F938F9316
:103AE0008E0104511F4F1F930F930E94E62BB801C4
:103AF00080ED95E055D264E670E080E090E038DB40
:103B0000B60180ED95E04CD2B70180ED95E048D24A
:103B1000B40180ED95E044D260E272E080ED95E082
:103B20003FD20B5E1109C80177DC89819A810E941E
:103B3000632F62E878E080ED95E032D2C8016CDC5A
:103B400089819A810E94632F63EE72E080ED95E097
:103B500012D2B50180ED95E023D288E9D8011D92FB
:103B60008A95E9F767E970E0C80139DC60EF73E036
:103B7000C8010E94CC2BEDB7FEB73C960FB6F89467
:103B8000FEBF0FBEEDBF892B39F067EF73E08DE606
:103B900096E006D281E005C0B8018DE696E000D23D
:103BA00080E0CB5EDE4F28813981C551D1400FB610
:103BB000F8943EBF0FBE2DBFC25EDE4F0FB6F89425
:103BC000DEBF0FBECDBFDF91CF911F910F91FF9050
:103BD000EF90DF90CF90BF90AF909F908F907F90AD
:103BE0006F905F904F903F902F900895CF92DF920B
:103BF000EF92FF920F931F93CF93DF936C017A01A3
:103C00008B01C0E0D0E0CE15DF0589F0D8016D91C1
:103C10008D01D601ED91FC910190F081E02DC6015E
:103C20001995892B11F47E0102C02196ECCFC701B2
:103C3000DF91CF911F910F91FF90EF90DF90CF9088
:103C40000895FC01A089B1898C91A689B78982FD6C
:103C50000FC09C91818D8F5F8F73228D821749F0E9
:103C6000218DDF01A20FB11D5D969C93818F089578
:103C70008C910895FC01918D828D981761F0828D51
:103C8000DF01A80FB11D5D968C91928D9F5F9F7390
:103C9000928F90E008958FEF9FEF0895FC01918D32
:103CA000828D981731F0828DE80FF11D858D90E09F
:103CB00008958FEF9FEF089580ED95E00E94CA016F
:103CC00021E0892B09F420E0822F08958DE696E00B
:103CD0000E94CA0121E0892B09F420E0822F089577
:103CE0000E94B02B0F931F93CF93DF93EC01888139
:103CF0009981009729F02A813B812617370788F49C
:103D00008B016F5F7F4F0E94CC2A009761F09983EF
:103D100088831B830A832C813D81232B11F4FC01B2
:103D2000108281E001C080E0DF91CF911F910F915F
:103D30000895EF92FF920F931F93CF93DF93EC01BF
:103D400081E0888F9B8D8C8D981305C0E889F98957
:103D5000808185FD24C0F62E0B8D10E00F5F1F4F74
:103D60000F731127E02E8C8DE8120CC00FB607FCE4
:103D7000FACFE889F989808185FFF5CFCE010E94CD
:103D8000D713F1CF8B8DFE01E80FF11DE35AFF4FE2
:103D9000F0820B8FEA89FB898081806207C0EE89FF
:103DA000FF896083E889F98980818064808381E06C
:103DB00090E0DF91CF911F910F91FF90EF900895C8
:103DC000CF93DF93EC01888D8823C9F0EA89FB89C2
:103DD000808185FD05C0A889B9898C9186FD0FC0B9
:103DE0000FB607FCF5CF808185FFF2CFA889B9898E
:103DF0008C9185FFEDCFCE010E94D713E7CFDF91E5
:103E0000CF9108951F920F920FB60F9211242F9306
:103E10003F938F939F93AF93BF938091C8059091E9
:103E2000C905A091CA05B091CB053091B20823E035
:103E3000230F2D3720F40196A11DB11D05C026E8E2
:103E4000230F0296A11DB11D2093B2088093C805CF
:103E50009093C905A093CA05B093CB058091CC057A
:103E60009091CD05A091CE05B091CF050196A11DF1
:103E7000B11D8093CC059093CD05A093CE05B09352
:103E8000CF05BF91AF919F918F913F912F910F904F
:103E90000FBE0F901F901895EF92FF920F931F93F4
:103EA000CF93DF931F921F92CDB7DEB78C0169834A
:103EB0001A82FC01E480F580FFEFEF1AFF0AB701D8
:103EC00011DF882381F0F80120813181848195817F
:103ED000BE016F5F7F4F820F931F0E94C52BF801B9
:103EE000F582E48281E00F900F90DF91CF911F91D6
:103EF0000F91FF90EF900895EF92FF920F931F9311
:103F0000CF93DF93EC01198218821B821A821D82E3
:103F10001C826115710541F18B01FB0101900020AC
:103F2000E9F731977F01E61AF70AB701DBDE28814E
:103F3000398181110DC02115310519F0C9010E9487
:103F4000632F198218821D821C821B821A820CC068
:103F5000FD82EC82B801C901DF91CF911F910F91D1
:103F6000FF90EF900C94C52BDF91CF911F910F9193
:103F7000FF90EF9008956115710579F0FB010190B4
:103F80000020E9F73197AF01461B570BDC01ED919B
:103F9000FC910280F381E02D199480E090E0089577
:103FA0000F931F93CF93DF93EC01E5DF8C0163EE5A
:103FB00072E0CE01E0DF800F911FDF91CF911F9162
:103FC0000F9108951F920F920FB60F9211240BB606
:103FD0000F922F933F934F935F936F937F938F93A2
:103FE0009F93AF93BF93EF93FF9380ED95E00E9473
:103FF000D713FF91EF91BF91AF919F918F917F91D7
:104000006F915F914F913F912F910F900BBE0F9049
:104010000FBE0F901F9018951F920F920FB60F9220
:1040200011240BB60F922F933F934F935F936F938F
:104030007F938F939F93AF93BF93EF93FF9380ED05
:1040400095E0FFDDFF91EF91BF91AF919F918F912F
:104050007F916F915F914F913F912F910F900BBE88
:104060000F900FBE0F901F9018951F920F920FB6D2
:104070000F9211240BB60F922F933F934F935F93A0
:104080006F937F938F939F93AF93BF93EF93FF9320
:104090008DE696E00E94D713FF91EF91BF91AF910B
:1040A0009F918F917F916F915F914F913F912F9150
:1040B0000F900BBE0F900FBE0F901F9018951F9280
:1040C0000F920FB60F9211240BB60F922F933F93BE
:1040D0004F935F936F937F938F939F93AF93BF9310
:1040E000EF93FF938DE696E0ACDDFF91EF91BF91EA
:1040F000AF919F918F917F916F915F914F913F9180
:104100002F910F900BBE0F900FBE0F901F90189520
:104110000895E0919D0880919C08E81730F4F0E044
:10412000E955FA4F808190E008958FEF9FEF089551
:1041300090919D0880919C08981750F4E92FF0E029
:10414000E955FA4F208130E09F5F90939D0802C0AF
:104150002FEF3FEFC901089580919C0890E02091D6
:104160009D08821B9109089585ED8093BC00809184
:10417000BC0084FDFCCF1092990808954091D508A9
:10418000262F30E0240F311D21323105DCF420913F
:1041900099082430C9F4FC0180E090E0861758F4B7
:1041A0003091D5082191DC01AD54B74FA30FB11D5B
:1041B0002C930196F3CF8091D508680F6093D508B2
:1041C00080E0089581E0089582E00895CF92DF9223
:1041D000EF92FF920F931F93CF93DF937C01262FD3
:1041E000972F8A0180916205882391F0C62FD72FDF
:1041F0006E01C40ED51ECC15DD0569F06991D7019D
:10420000ED91FC910190F081E02DC7011995F3CF5C
:10421000642F822FB3DFC801DF91CF911F910F91DF
:10422000FF90EF90DF90CF900895CF93DF931F9290
:10423000CDB7DEB76983209162052223D1F02091AA
:104240009A08203240F021E030E0FC0133832283E1
:1042500080E090E014C080919B08E82FF0E0ED59D9
:10426000FA4F998190838F5F80939B0880939A087F
:1042700004C061E0CE01019681DF81E090E00F9003
:10428000DF91CF910895CF92DF92EF92FF921F932B
:10429000CF93DF9300D000D0CDB7DEB7CE0101962B
:1042A0000E94231586E0FE013196ACE7B8E001904C
:1042B0000D928A95E1F70E9463176093AA087093A4
:1042C000AB088093AC089093AD080E94FC1888233B
:1042D000D1F1809175088B3029F0A8F18551823099
:1042E00048F031C06091700870E080E090E00E947A
:1042F0008A3232C010917008612F6F7770E080E0D1
:1043000090E00E948C3220E030E040E853E40E94CC
:10431000EB326B017C0180917108682F70E080E0C6
:1043200090E00E948C329B01AC01C701B6010E9453
:10433000EC2920E030E040E251E40E94572A17FFC8
:104340000BC0905809C067EE74E08DE696E013DE6E
:1043500060E070E080EC9FE76093A6087093A70888
:104360008093A8089093A9089B01AC010E94C82AD9
:10437000882331F061EF74E08DE696E011DE03C032
:1043800081E08093AF0826960FB6F894DEBF0FBE8B
:10439000CDBFDF91CF911F91FF90EF90DF90CF9035
:1043A0000895CF92DF92EF92FF92CF93DF9300D0E8
:1043B00000D0CDB7DEB7CE0101960E94231586E06E
:1043C000FE013196ACE7B8E001900D928A95E1F7D5
:1043D0000E9463176093A2087093A3088093A408B7
:1043E0009093A5080E94FC18882399F18091750884
:1043F0008B3039F170F18551823058F560916E083B
:1044000070E080E090E00E948A3220E030E040E8F6
:1044100053E40E94EB326B017C0180916F08682F9E
:1044200070E080E090E00E948C329B01AC01C701FB
:10443000B601D2D720E030E040E251E40E94572A92
:1044400011C060916E0870E080E090E00E948A32B6
:1044500009C067EE74E08DE696E08DDD60E070E007
:1044600080EC9FE760939E0870939F088093A0085C
:104470009093A1089B01AC010E94C82A882331F0C7
:1044800069E175E08DE696E08BDD03C081E0809305
:10449000AE0826960FB6F894DEBF0FBECDBFDF91F3
:1044A000CF91FF90EF90DF90CF9008952F923F92A1
:1044B0004F925F926F927F928F929F92AF92BF9234
:1044C000CF92DF92EF92FF920F931F93CF93DF93E0
:1044D000CDB7DEB72A970FB6F894DEBF0FBECDBFBB
:1044E0009A8789870E94F0184B015C0149855A859B
:1044F0005E834D836A015CE8C50ED11CE984FA84B1
:1045000088E7E80EF11C09851A85085D1F4FF886BB
:10451000EF821601AF81B8855F961C921E925E975E
:10452000CD0180559109FC0180819181892B09F48D
:1045300052C0AD81BE814D915D916D917C9113977B
:10454000DC964D905D906D907C90DF97D501C40115
:10455000841B950BA60BB70B84159505A605B7050F
:10456000D0F1440D551D661D771DAD81BE814D9363
:104570005D936D937C931397F1018081882359F1AA
:104580008F8198854497DC012D913C91211531054F
:1045900039F441E050E0EF81F885578F468F1BC01A
:1045A000AF81B8858D919C911197821793079CF4E8
:1045B000E1E0F0E05F96FC93EE935E970196119632
:1045C0009C938E938217930734F042E050E05F96FD
:1045D0005C934E935E978D819E8104969E838D831E
:1045E0009FEF291A390AAF81B8851296B887AF8331
:1045F000ED81FE81E017F10709F08CCF89849A8460
:10460000FCE38F0E911C540169847A844AEA640E9B
:10461000711CD7015E968D919C915F9781309105B9
:1046200019F0029731F028C0D801ED91FC9119954D
:1046300023C0D801ED91FC911995F30180819181FE
:104640000097D1F0D8012D913C911197232BA1F027
:104650001D921C92F6011082D7015F961C921E9249
:104660005E97F50110821182128213821D921C92B4
:104670000197D3018D939C930E5F1F4FBFEFCB1A11
:10468000DB0AE4E0AE0EB11CF2E0EF0EF11C0815FF
:10469000190509F0BECF2A960FB6F894DEBF0FBEFB
:1046A000CDBFDF91CF911F910F91FF90EF90DF90E1
:1046B000CF90BF90AF909F908F907F906F905F90C2
:1046C0004F903F902F9008951F920F920FB60F9228
:1046D00011240F900FBE0F901F9018951F920F92EC
:1046E0000FB60F9211240BB60F922F933F934F9357
:1046F0005F936F937F938F939F93AF93BF93EF934A
:10470000FF938091B900887F803609F49CC068F5DA
:10471000883209F45BC090F4803109F454C038F455
:10472000882309F4F6C0883009F44DC0F5C08831FB
:1047300009F44CC0803209F45DC0EEC0803409F445
:1047400068C048F4803309F455C0883309F0E4C0E8
:104750008093A605D8C0803509F44FC0883509F488
:104760005DC0883409F0D8C0D6C0883909F4C7C004
:10477000A8F4883709F467C038F4883609F463C0B0
:10478000803709F460C0C8C0883809F4B8C08039DF
:1047900009F45FC0803809F0BFC05BC0803B09F4FA
:1047A00086C038F4803A09F466C0883A09F47FC0BC
:1047B000B3C0803C09F4A7C0883C09F4A4C0883B7E
:1047C00009F48AC0A9C08091A30510C09091A505E5
:1047D0008091A405981770F5E091A50581E08E0FF2
:1047E0008093A505F0E0ED57FA4F80818093BB00E0
:1047F00085EC86C08093A6058EC0E091A50581E07A
:104800008E0F8093A5058091BB00F0E0ED57FA4F25
:1048100080839091A5058091A4056EC0E091A505C7
:1048200081E08E0F8093A5058091BB00F0E0ED57ED
:10483000FA4F80838091980881116DC081E0809348
:10484000970884EA61C083E0809399081092F90880
:10485000CFCF8091F908803208F051C0E091F9087B
:1048600081E08E0F8093F9088091BB00F0E0E75261
:10487000F74F8083BDCF85EC8093BC0010929908E0
:104880008091F908803230F4E091F908F0E0E752C5
:10489000F74F10826091F90870E0E091D708F0912D
:1048A000D80889ED98E019951092F90835C084E090
:1048B000809399081092D6081092D508E091D308F9
:1048C000F091D40819958091D508811105C081E037
:1048D0008093D5081092B308E091D60881E08E0F3E
:1048E0008093D608F0E0ED54F74F80818093BB00B1
:1048F0009091D6088091D508981708F479CF85E86B
:104900008093BC0009C085EC8093BC00109299088C
:1049100003C01092A60528DCFF91EF91BF91AF91E3
:104920009F918F917F916F915F914F913F912F91C7
:104930000F900BBE0F900FBE0F901F901895CF9247
:10494000DF92EF92FF920F931F93CF93DF93CDB738
:10495000DEB7C151D2400FB6F894DEBF0FBECDBF57
:10496000CDB6DEB6EEE3F2E0DF010D900020E9F710
:10497000CD01885392402DB73EB7281B390B0FB697
:10498000F8943EBF0FBE2DBF8DB79EB701967C0138
:10499000FF93EF9387ED93E09F938F93FF92EF92B6
:1049A00015D7E9E8F2E001900020E9F7D7010D9072
:1049B0000020E9F711979D012E193F09C9018E0FBB
:1049C0009F1F845892409F938F9380EE93E09F9314
:1049D0008F938E010F5F1D4F1F930F93F7D6B80172
:1049E00080ED95E0DDDA66E970E080E090E00E941D
:1049F000B81865EE72E01250C8017EDA0E94B7194D
:104A0000EDB7FEB73C960FB6F894FEBF0FBEEDBFF4
:104A100097FD09C08A30910531F0682FC8013CDA52
:104A20000E94B719F5CF89819A810E94632F69E8A6
:104A300072E080ED95E0B4DAB70180ED95E0B0DA90
:104A400063EE72E080ED95E096DA80E092E0F801A6
:104A50009C01119221503040E1F780ED95E00E94D9
:104A6000CA01181619061CF000E010E04DC0F8014C
:104A700001900020E9F73197E01BF10BEB3FF105C6
:104A800098F76AEF70E0C8010E94EF196BE575E0D6
:104A9000C80182D6892B91F16EE375E0C8010E94AE
:104AA000FB2F8C01892B01F36BE575E0C80174D6EF
:104AB000892BF9F06CE773E0C8010E94FB2F6CE7CB
:104AC00073E080E090E00E94FB2F8C01FC010190DC
:104AD0000020E9F7CF01819780179107A9F460E4DE
:104AE00075E08DE696E047DAB8018DE696E058DA93
:104AF0000BC06EE375E080E090E0D1CF6CE475E030
:104B00008DE696E04DDAA9CFC8010FB6F894DEBE67
:104B10000FBECDBECF5EDD4F0FB6F894DEBF0FBE29
:104B2000CDBFDF91CF911F910F91FF90EF90DF905C
:104B3000CF900895CF93DF931092D3051092D205B2
:104B400088EE93E0A0E0B0E08093D4059093D50583
:104B5000A093D605B093D70527EC32E03093D1056A
:104B60002093D0054DEC50E05093DD054093DC05DB
:104B70004CEC50E05093DF054093DE0548EC50E0EC
:104B80005093E1054093E00549EC50E05093E30574
:104B90004093E2054AEC50E05093E5054093E4056C
:104BA0004EEC50E05093E7054093E6051092E9057E
:104BB0001092EA051092EB051092EC051092700627
:104BC00010926F068093710690937206A0937306FD
:104BD000B093740630936E0620936D0625EC30E09A
:104BE00030937A062093790624EC30E030937C06EB
:104BF00020937B0620EC30E030937E0620937D06E8
:104C000021EC30E03093800620937F0622EC30E0E8
:104C1000309382062093810626EC30E030938406A0
:104C200020938306109286061092870610928806BB
:104C30001092890610920D0710920C0780930E07B0
:104C400090930F07A0931007B093110787ED92E0A0
:104C500090930B0780930A0780E1809381088CE191
:104C60008093800886E080937F0820E081E697E9C2
:104C7000E3E9FEEF31E0422F437009F030E061E0FC
:104C8000620F432F50E0DA01A359BE4F8A179B07EA
:104C900038F09F01241B350B820F931F262FEACF7C
:104CA00020937C0821E0E22FF0E0E95DFD4FE491E4
:104CB000332319F0223009F4EF5FF0E041E0420FB6
:104CC0008E179F0720F08E1B9F0B242FECCF209375
:104CD0007D088F5F80937E0882E08093740886E170
:104CE0008093750886E08093760881E080937B0846
:104CF0000E94F018CEE4D8E0EAEEF7E042EC57E08C
:104D0000199211921192DA016D937D938D939D9377
:104D1000AD019F01225B3F4FD9011D921C92B7E06C
:104D2000EE3FFB0769F710926D0810926C080E9425
:104D3000F018C2EAD7E0EEE3F7E046E157E0199257
:104D400011921192DA016D937D938D939D93AD0134
:104D50009F01225B3F4FD9011D921C92B7E0E235C3
:104D6000FB0769F71092C1071092C007DF91CF913E
:104D70000895CF93DF93CDB7DEB7C257D1090FB6F1
:104D8000F894DEBF0FBECDBF789484B5826084BD39
:104D900084B5816084BD85B5826085BD85B581603F
:104DA00085BD80916E00816080936E0010928100BD
:104DB0008091810082608093810080918100816078
:104DC0008093810080918000816080938000809139
:104DD000B10084608093B1008091B00081608093C5
:104DE000B000809191008260809391008091910049
:104DF0008160809391008091900081608093900009
:104E00008091A10082608093A1008091A1008160C7
:104E10008093A1008091A00081608093A000809188
:104E20002101826080932101809121018160809322
:104E300021018091200181608093200180917A007E
:104E4000846080937A0080917A00826080937A00F7
:104E500080917A00816080937A0080917A008068E6
:104E600080937A001092C100E0917D06F0917E0659
:104E700002E00083E0917906F0917A061082E091D9
:104E80007B06F0917C0687E6808310928506E09190
:104E90008106F091820616E01083E0917F06F09182
:104EA0008006808180618083E0917F06F09180069A
:104EB000808188608083E0917F06F0918006808108
:104EC00080688083E0917F06F091800680818F7DED
:104ED00080836EE074E08DE696E062D8E091E005B4
:104EE000F091E1050083E091DC05F091DD05108291
:104EF000E091DE05F091DF058FEC80831092E805EC
:104F0000E091E405F091E5051083E091E205F09170
:104F1000E305808180618083E091E205F091E30503
:104F2000808188608083E091E205F091E3058081D3
:104F300080688083E091E205F091E30580818F7DB8
:104F4000808368EC70E080E090E00E94B8181092D6
:104F50009D0810929C0810929B0810929A0810923B
:104F6000990881E0809398081092970861E084E1A5
:104F70000E944D1861E085E10E944D188091B900B2
:104F80008E7F8093B9008091B9008D7F8093B900A6
:104F900088E48093B80085E48093BC0060E0809151
:104FA00074080E947C1861E0809174080E944D187A
:104FB00010927708109278081092790810927A0867
:104FC0006AE174E08DE696E00E94D01F23E431E2AE
:104FD00040E65AEE60E070E082EC97E00E943D16F9
:104FE00021ED31E240E65AEE60E070E086E197E0C4
:104FF0000E943D169E012F5F3F4F690184E8282ED5
:1050000082E0382EC90182509940E3969FAF8EAF5F
:10501000E397812C912C98ECA92E92ECB92E82EC7E
:1050200097E044DA86E197E041DA8091AF08811198
:1050300005C08091AE08882309F4A0C1EDB6FEB684
:10504000D601E4E61D92EA95E9F70E94F0182B01DB
:105050003C016DE174E080ED95E00E94D01F64E6B4
:1050600070E080E090E00E94B818CE018B599F4F0D
:105070000E940C1AA7968EAD9FADA79724D7AEE3DA
:10508000B2E00D900020E9F7F10101900020E9F76E
:10509000CD018E0F9F1F86589240825292402DB7AD
:1050A0003EB7281B390B0FB6F8943EBF0FBE2DBF7D
:1050B0000DB71EB70F5F1F4F3F922F92AEE3B2E0C6
:1050C000BF93AF93A9E2B4E0BF93AF931F930F9345
:1050D0007DD3B80180ED95E00E94D01F64E670E0BA
:1050E00080E090E00E94B8182DB73EB7285F3F4F90
:1050F0000FB6F8943EBF0FBE2DBF00E010E00E9437
:10510000F018DC01CB0184199509A609B709883B81
:105110009B40A105B10550F480ED95E00E94CA01C5
:1051200098012D593F4F2817390738F465E474E08A
:10513000C60132D3892BA1F40DC080ED95E00E9409
:10514000CA01BC01C601800F911F0E94EF19080F10
:10515000191FD5CF6DE474E0C6011ED3892B99F0D9
:1051600067E574E08DE696E00E94BB1F6EE372E097
:105170008DE696E00E94D01F1092B1081092B00800
:10518000772473941CC08091B0089091B108019667
:105190009093B1088093B0086EE372E08DE696E0DC
:1051A0000E94BB1F66E674E08DE696E00E94BB1F7E
:1051B0008091B0089091B1080E94C817712CCE015F
:1051C0008B599F4F0E940C1AA7968EAD9FADA79743
:1051D0007AD60FB6F894FEBE0FBEEDBE8091AF0832
:1051E000882309F453C0772009F440C0A8DBBC0130
:1051F000C601CBD2E2EDF4E0DE01AB59BF4F8CE04B
:1052000001900D928A95E1F7E090AA08F090AB0822
:105210000091AC081091AD084091A6085091A708E4
:105220006091A8087091A9089E012B593F4FC601B3
:105230000E941D1A182F68EE73E080E090E00E9433
:10524000B818112319F11092AF088092A608909215
:10525000A708A092A808B092A9081092AA081092D4
:10526000AB081092AC081092AD0810C08091B00845
:105270009091B1080B9754F067E874E08DE696E0E2
:105280000E94D01F1092B1081092B0088091AE0811
:10529000882309F457C0772009F444C050DBBC01CF
:1052A000C60173D2EEEDF4E0DE01AB59BF4F89E0E9
:1052B00001900D928A95E1F7E090A208F090A30882
:1052C0000091A4081091A50840919E0850919F0854
:1052D0006091A0087091A1089E012B593F4FC60113
:1052E0000E941D1A182F68EE73E080E090E00E9483
:1052F000B818112339F11092AE0880E090E0A0E8D0
:10530000BFEB80939E0890939F08A093A008B09352
:10531000A1081092A2081092A3081092A40810925B
:10532000A50810C08091B0089091B1080B9754F077
:1053300067E874E08DE696E00E94D01F1092B108F5
:105340001092B00864EC74E080ED95E00E94D01FEC
:105350008091FE089091FF08009739F4E396AEAD76
:10536000BFADE397BA83A98305C0F601E81BF90B2B
:10537000FA83E98389819A810E94C8170E94D60125
:105380004ECEA1E21A2EAA1BBB1BFD010DC0AA1F07
:10539000BB1FEE1FFF1FA217B307E407F50720F09E
:1053A000A21BB30BE40BF50B661F771F881F991F19
:1053B0001A9469F760957095809590959B01AC0162
:1053C000BD01CF010895EE0FFF1F881F8BBF07900F
:1053D000F691E02D19945058BB27AA2713D00C94AE
:1053E00065330E94573338F00E945E3320F039F461
:1053F0009F3F19F426F40C9454330EF4E095E7FB28
:105400000C944E33E92F0E94763358F3BA17620793
:1054100073078407950720F079F4A6F50C94983368
:105420000EF4E0950B2EBA2FA02D0B01B9019001BF
:105430000C01CA01A0011124FF27591B99F0593F03
:1054400050F4503E68F11A16F040A22F232F342F4B
:105450004427585FF3CF469537952795A795F04099
:105460005395C9F77EF41F16BA0B620B730B840BAE
:10547000BAF09150A1F0FF0FBB1F661F771F881F66
:10548000C2F70EC0BA0F621F731F841F48F48795BE
:1054900077956795B795F7959E3F08F0B0CF9395B0
:1054A000880F08F09927EE0F97958795089512D0E9
:1054B0000C9465330E945E3358F00E94573340F0DD
:1054C00029F45F3F29F00C944E3351110C94993319
:1054D0000C9454330E94763368F39923B1F3552327
:1054E00091F3951B550BBB27AA27621773078407F7
:1054F00038F09F5F5F4F220F331F441FAA1FA9F38D
:1055000035D00E2E3AF0E0E832D091505040E6957A
:10551000001CCAF72BD0FE2F29D0660F771F881FDB
:10552000BB1F261737074807AB07B0E809F0BB0BCE
:10553000802DBF01FF2793585F4F3AF09E3F5105E2
:1055400078F00C944E330C9499335F3FE4F3983E1B
:10555000D4F3869577956795B795F7959F5FC9F7CB
:10556000880F911D9695879597F90895E1E0660F4C
:10557000771F881FBB1F621773078407BA0720F0C5
:10558000621B730B840BBA0BEE1F88F7E09508952E
:10559000FED7880B990B08956F927F928F929F92FE
:1055A000AF92BF92CF92DF92EF92FF920F931F9331
:1055B000CF93DF93EC01009781F4CB01DF91CF9182
:1055C0001F910F91FF90EF90DF90CF90BF90AF9021
:1055D0009F908F907F906F90E1C3FC01E60FF71FC3
:1055E0009C0122503109E217F30708F4A8C0D90141
:1055F0000D911C91119706171707A8F0053011059A
:1056000008F49BC0C80104978617970708F495C053
:1056100002501109061B170B019311936D937C9394
:10562000CF0151D48AC05B01A01AB10A4C01800E8F
:10563000911EA0910009B091010940E050E0E12CD9
:10564000F12C109709F44AC0A815B905D1F56D9051
:105650007C901197630182E0C80ED11CCA14DB0450
:1056600080F1A3014A195B096A0182E0C80ED11CCE
:105670001296BC9012971396AC91B5E0CB16D1045C
:1056800040F0B282A38351834083D9016D937C9310
:105690000AC00E5F1F4FC301800F911FF901918354
:1056A0008083EB2DFA2FE114F10431F0D70113962A
:1056B000FC93EE93129741C0F0930109E093000927
:1056C0003CC08D919C9111974817590708F4AC0183
:1056D0007D0112960D90BC91A02DB3CF8091FE0854
:1056E0009091FF0888159905E1F446175707C8F40B
:1056F0008091AC029091AD02009741F48DB79EB7B6
:105700004091B0025091B102841B950BE817F90744
:10571000B0F4F093FF08E093FE08F9017183608311
:105720000CC0CB013BD37C01009749F0A801BE011E
:105730001CD0CE01C8D3C70104C0CE0102C080E096
:1057400090E0DF91CF911F910F91FF90EF90DF904C
:10575000CF90BF90AF909F908F907F906F90089563
:1057600081E090E0F8940C94B833FB01DC0102C0B6
:1057700001900D9241505040D8F70895DC0101C0CE
:105780006D9341505040E0F70895FB01DC0101901A
:105790000D920020E1F70895FB0151915523A9F0E6
:1057A000BF01DC014D9145174111E1F759F4CD01DD
:1057B0000190002049F04D9140154111C9F3FB01C2
:1057C0004111EFCF81E090E0019708950F931F936F
:1057D000CF93DF93CDB7DEB72E970FB6F894DEBF29
:1057E0000FBECDBF0E891F8986E08C831A83098383
:1057F0008FEF9FE79E838D83AE01465E5F4F688D7E
:10580000798DCE01019611D02F813885F801E20FF4
:10581000F31F10822E960FB6F894DEBF0FBECDBFD9
:10582000DF91CF911F910F9108952F923F924F9248
:105830005F926F927F928F929F92AF92BF92CF9220
:10584000DF92EF92FF920F931F93CF93DF93CDB729
:10585000DEB72C970FB6F894DEBF0FBECDBF7C012C
:105860006B018A01FC0117821682838181FFB0C11E
:10587000CE0101964C01F7019381F60193FD8591CC
:1058800093FF81916F01882309F49EC1853239F419
:1058900093FD859193FF81916F01853221F4B701CA
:1058A00090E0C7D1E8CF512C312C20E02032A0F479
:1058B0008B3269F030F4803259F0833269F4206120
:1058C0002CC08D3239F0803339F4216026C022603B
:1058D000246023C0286021C027FD27C030ED380F89
:1058E0003A3078F426FF06C0FAE05F9E300D1124AE
:1058F000532E13C08AE0389E300D1124332E2062BF
:105900000CC08E3221F426FD5FC1206406C08C36A7
:1059100011F4206802C0883641F4F60193FD8591A8
:1059200093FF81916F018111C1CF982F9F7D955475
:10593000933028F40C5F1F4FFFE3F9830DC08336CB
:1059400031F0833771F0833509F057C021C0F80179
:10595000808189830E5F1F4F44244394512C54014E
:1059600014C03801F2E06F0E711CF801A080B18004
:1059700026FF03C0652D70E002C06FEF7FEFC50109
:105980002C874CD12C0183012C852F77222E16C019
:105990003801F2E06F0E711CF801A080B18026FF83
:1059A00003C0652D70E002C06FEF7FEFC5012C874B
:1059B0002AD12C012C852068222E830123FC19C0BA
:1059C000832D90E048165906A0F4B70180E290E0DC
:1059D00030D13A94F5CFF50127FC859127FE8191CE
:1059E0005F01B70190E025D131103A94F1E04F1AF0
:1059F00051084114510479F7DEC0843611F089361C
:105A000031F5F80127FF07C06081718182819381A0
:105A10000C5F1F4F08C060817181072E000C880B3E
:105A2000990B0E5F1F4F2F76722E97FF09C090952E
:105A30008095709561957F4F8F4F9F4F2068722E94
:105A40002AE030E0A4012DD1A82EA81843C0853744
:105A500029F42F7EB22E2AE030E025C0F22FF97F04
:105A6000BF2E8F36C1F018F4883579F0ADC080377D
:105A700019F0883721F0A8C02F2F2061B22EB4FE74
:105A80000DC08B2D8460B82E09C024FF0AC09F2F43
:105A90009660B92E06C028E030E005C020E130E075
:105AA00002C020E132E0F801B7FE07C060817181D9
:105AB000828193810C5F1F4F06C06081718180E0FD
:105AC00090E00E5F1F4FA401ECD0A82EA818FB2D6C
:105AD000FF777F2E76FE0BC0372D3E7FA51450F446
